{
  "contractName": "Plasma",
  "abi": [
    {
      "constant": false,
      "inputs": [],
      "name": "deposit",
      "outputs": [],
      "payable": true,
      "stateMutability": "payable",
      "type": "function"
    },
    {
      "constant": false,
      "inputs": [
        {
          "name": "txBytes",
          "type": "bytes"
        }
      ],
      "name": "deposit2",
      "outputs": [],
      "payable": true,
      "stateMutability": "payable",
      "type": "function"
    },
    {
      "anonymous": false,
      "inputs": [
        {
          "indexed": false,
          "name": "sender",
          "type": "address"
        },
        {
          "indexed": false,
          "name": "value",
          "type": "uint256"
        }
      ],
      "name": "Deposit",
      "type": "event"
    }
  ],
  "bytecode": "0x6060604052341561000f57600080fd5b6101498061001e6000396000f30060606040526004361061004c576000357c0100000000000000000000000000000000000000000000000000000000900463ffffffff168063d0e30db014610051578063f8a91a7b1461005b575b600080fd5b6100596100ad565b005b6100ab600480803590602001908201803590602001908080601f0160208091040260200160405190810160405280939291908181526020018383808284378201915050505050509190505061011a565b005b7fe1fffcc4923d04b559f4d29a8bfc6cda04eb5b0d3c460751c2402c5c5cc9109c3334604051808373ffffffffffffffffffffffffffffffffffffffff1673ffffffffffffffffffffffffffffffffffffffff1681526020018281526020019250505060405180910390a1565b505600a165627a7a723058202aee15c32979645b77be5e6e88123700a8c754e4a5dad65f87592b38fac4eff70029",
  "source": "pragma solidity ^0.4.17;\n\nimport './libraries/RLP.sol';\n\n\ncontract Plasma {\n    using RLP for bytes;\n    using RLP for RLP.RLPItem;\n    using RLP for RLP.Iterator;\n\n    event Deposit(address sender, uint value);\n\n    function deposit() public payable {\n        Deposit(msg.sender, msg.value);\n    }\n\n    function deposit2(bytes txBytes) public payable {\n        // TO BE IMPLEMENTED\n    }\n}\n",
  "sourcePath": "/Users/mattkim/go/src/github.com/kyokan/plasma/contracts/contracts/Plasma.sol",
  "compiler": {
    "name": "solc",
    "version": "0.4.18+commit.9cf6e910.Emscripten.clang"
  },
  "schemaVersion": "1.0.1",
  "updatedAt": "2018-03-09T20:37:41.672Z"
}